:100000000FC4000036C4000034C4000032C4000035
:1000100030C400002EC400002CC400002AC400001C
:1000200028C4000026C4000024C4000022C400002C
:1000300020C400001EC400001CC400000C94071162
:1000400018C4000016C4000014C4000012C400004C
:1000500010C400000EC400000CC400000AC400005C
:100060000C94361106C4000004C4000002C4000051
:1000700000C40000FEC30000FCC30000AED580A891
:100080003FD300408D142002A1C8DA12817FD9F13C
:10009000DB40A4A6AF00000A0F205F0000000000B4
:1000A0000000000000000000000000000000000050
:1000B000000000FEFE000000000000000019190012
:1000C00000000000001E1E00001E1E0000000000B8
:1000D000000000000000000030FEFE3030FEFE3068
:1000E0000000031F1F03031F1F03000070F8D8FE4A
:1000F0009898000000000C18187F191F0F00001CB2
:10010000B6A2F6CC60602030000101000E1B111B6E
:100110000E00000000DC7EE6C6860C808000070F23
:100120001C18191F1E1F13000000001E1E000000D7
:100130000000000000000000000000000000E0FCE3
:100140001E02000000000000073F78400000000091
:1001500000021EFCE000000000000040783F0700A5
:1001600000000000487830FE3078480000000000B1
:100170000001000000000000808080F0F08080809E
:1001800000000101010F0F0101010000000000004B
:100190000000000000000000407C3C000000000067
:1001A0000000000000000000000000030303030340
:1001B000000000000000000000000000000000003F
:1001C000001C1C0000000000000000C0F03C0E02FB
:1001D000000020381E07010000000000F0FC0EC6E1
:1001E000C60EFCF80000030F1C18181C0F070000B7
:1001F000000C06FEFE00000000001818181F1F1853
:10020000181800000C06060686C67C380000181C6C
:100210001E1B1918181800000C06C6C6C6C6FC38E6
:1002200000000C18181818190F0F000080C0701863
:100230000EFEFE00000003030303031F1F03000064
:10024000FE7E666666E6C68000000C181818181C4C
:100250000F070000F0FCCE6666E6CC800000070FBA
:100260001C18181C0F07000006060606E6FE3E0EC8
:10027000000000101C0F03000000000038FCC6C680
:10028000C6C6FC3800000F0F181818180F0F000012
:1002900078FCCE8686CEFCF80000000C1919191CDB
:1002A0000F030000000000E0E0000000000000007C
:1002B000001C1C0000000000000000E0E000000046
:1002C00000000000407C3C00000000008080C04036
:1002D000606020300000010103020606040C0000EB
:1002E00060606060606060600000060606060606EA
:1002F000060600003020606040C0808000000C04D2
:1003000006060203010100000C0686C6667E1C007C
:10031000000000001B1B0000000000E0F0389CCC37
:10032000CCDCF8F000071F3873676666772700009B
:1003300000C0FC3E3EFCC0000000181F0F03030F6E
:100340001F180000FEFEC6C6C6C6FC3C00001F1FEC
:10035000181818181F0F0000F0FC0C060606060CF3
:100360000000030F0C181818180C0000FEFE0606FB
:10037000060CFCF000001F1F1818180C0F030000DB
:10038000FEFEC6C6C6C6C60600001F1F18181818EF
:1003900018180000FEFEC6C6C6C6C60600001F1F0F
:1003A0000000000000000000F0FC0C068686868C31
:1003B0000000030F0C1819191F0F0000FEFEC0C02B
:1003C000C0C0FEFE00001F1F000000001F1F000035
:1003D000000606FEFE06060000000018181F1F1883
:1003E00018000000000000060606FEFE00000C18C3
:1003F000181818180F0F0000FEFEE0F0FC0E0602A1
:1004000000001F1F0000030F1E180000FEFE00006A
:100410000000000000001F1F18181818181800000E
:10042000FEFE3EF0F03EFEFE00001F1F0001010038
:100430001F1F0000FEFE1EF0C000FEFE00001F1F7A
:100440000000031E1F1F0000F0FC0E06060EFCF04D
:100450000000030F1C18181C0F030000FEFEC6C688
:10046000C6C67C7C00001F1F0000000000000000CA
:10047000F0FC0E06060EFCF00000030F1C18183CE2
:100480006F070000FEFEC6C6C6C6FC3C00001F1F6C
:10049000000001031F1E1000387CE6C6C6C68C0093
:1004A00000000C18181818190F0F0000060606FE99
:1004B000FE06060600000000001F1F0000000000EE
:1004C000FEFE00000000FEFE0000070F1C18181CB6
:1004D0000F07000006FEFC0000FCFE060000000006
:1004E0001F1F1F1F0000001EFEE000F0F000E0FED6
:1004F0001E001F1F1E01011E1F1F0000020E3EF8DE
:10050000F83E0E020000101C1F03031F1C10000207
:100510000E3E78E0E0783E0E02000000001F1F0053
:1005200000000000060686C6F67E1E0E00001C1E99
:100530001F1B1818181800000000FEFE0202000021
:10054000000000007F7F404000000000020E38E005
:1005500080000000000000000000030E38200000B2
:10056000000202FEFE00000000000040407F7F000D
:1005700000000010181C0E060E1C181000000000D1
:10058000000000000000000000000000000000006B
:1005900000404040404040404040400000010306D1
:1005A0000400000000000000000000000000000047
:1005B000006030B0B0B0F0E000000E1F1B19190D44
:1005C0001F1F0000FEFE60303070E0C000001F1FE3
:1005D0000C18181C0F070000C0E07030303030607D
:1005E0000000070F1C181818180C0000C0E070302D
:1005F0003060FEFE0000070F1C18180C1F1F0000C3
:10060000C0E0B0B0B0B0E0C00000070F1D1919196C
:10061000190D00003030FCFE3636360000000000B8
:100620001F1F000000000000C0E070303060F0F0DC
:10063000000003376E6C6C667F3F0000FEFE60308A
:100640003030F0E000001F1F000000001F1F0000FE
:10065000003030F7F700000000001818181F1F18AE
:1006600018180000003030F7F7000000000060604C
:10067000607F3F0000000000FEFE80E07030100050
:1006800000001F1F0103071E181000000606FEFED3
:1006900000000000000000000F1F181818000000E4
:1006A000F0F030F0E030F0E000001F1F001F1F00EE
:1006B0001F1F0000F0F060303030F0E000001F1F1E
:1006C000000000001F1F0000C0E070303070E0C06C
:1006D0000000070F1C18181C0F070000F0F0603016
:1006E0003070E0C000007F7F060C0C0E0703000096
:1006F000C0E070303060F0F0000003070E0C0C0614
:100700007F7F000000F0F060303030300000001FCC
:100710001F00000000000000E0F0B0B0B0B030609A
:1007200000000C191919191B1F0E00003030FCFCB9
:1007300030303000000000000F1F181818000000B3
:10074000F0F000000000F0F000000F1F1818180C67
:100750001F1F000030F0E00000E0F030000000015A
:100760000F1E1E0F01000070F00000C0C00000F05E
:100770007000071F1E03031E1F0700001030F0C08B
:10078000C0F03010000010181E07071E18100000DF
:1007900010F0F08000F0F03000000060637F1F0F69
:1007A0000100000030303030B0F070300000181C14
:1007B0001E1B191818180000000000FCFE020200A1
:1007C00000000001013E7E4040000000000000FEED
:1007D000FE00000000000000007F7F00000000001D
:1007E000000202FEFC00000000000040407E3E01CE
:1007F0000100000080C0C0C0808080C000000100F7
:10080000000001010100007C001980400000030C81
:100810000F30333C3FC0C3CCCFF0F3FCFF00DF11FF
:1008200011241FBECFEFCDBFDFE3DEBF80914000BC
:1008300080934000811105C098ED21E094BF209382
:1008400041008CBB28E3A0E0B8E301C01D92A13BAE
:10085000B207E1F714E0C0E1D4E004C02197FE0143
:100860000E949D17CF30D107C9F70E947E120C94C9
:100870000118C6CBEDE9F8E31282138286E190EB12
:10088000808391831486158616861786108A81E0E8
:10089000818B0895E0911D38F0911E38838180FD91
:1008A00002C080E10895609126389091273820E2B7
:1008B0003EE480E0AAE2B8E36E7F4581542F537096
:1008C00081F32150310979F485E0523021F084E040
:1008D000513009F481E120912738291B20932738D2
:1008E00093E09483089543FD1FC0533031F3811189
:1008F00005C0678320E23EE481E0DFCF46FFDDCF25
:1009000044FF07C081FF0EC083E09111E4CF80E077
:10091000E2CF9923E1F32D9120879150826020E26C
:100920003EE4CBCF82E0D7CF82E10895CF92DF9231
:10093000EF92FF929FB7F89488E08093840A8091A9
:100940008E0A81FFFCCF80918D0AE091A20AF0917E
:10095000A30AC0900938D0900A38E0900B38F09084
:100960000C389FBF80FF08C0E730F10528F48FEFF7
:10097000C81AD80AE80AF80A9F0136952795CF01C8
:10098000820F911DE22FE695E695322F32953F704A
:10099000E31BFF0B27FD3196E80FF91FA0E3B3E03F
:1009A000A70196010E94A317F694E794D794C794E1
:1009B000C60ED71EE81EF91EC701B6016E0F7F1FB7
:1009C000811D911DFF90EF90DF90CF900895CF9201
:1009D000DF92EF92FF92CF93DF936B017C01A6DF52
:1009E000EB01A4DF6C1B7D0B683E7340A0F0C114CB
:1009F000D104E104F10439F4DF91CF91FF90EF903D
:100A0000DF90CF90089581E0C81AD108E108F1087D
:100A1000C851DC4FE6CFC114D104E104F10409F759
:100A2000EBCFAF92BF92CF92DF92EF92FF920F93F4
:100A30001F93CF93DF936C017B018B01040F151F74
:100A4000EB015E01AE18BF08C017D10759F06991DC
:100A5000D601ED91FC910190F081E02DC601099540
:100A6000892B79F7C501DF91CF911F910F91FF90ED
:100A7000EF90DF90CF90BF90AF900895CF93DF932A
:100A8000EC018D85882329F081508D87DF91CF91EE
:100A900008959C818E819817C8F788896827E88116
:100AA000F9810084F185E02D42E0CE0109958C8129
:100AB0008F5F8C83EBCFDC01ED91FC910084F1859D
:100AC000E02D40E009940F931F93CF938C01FC011C
:100AD0006483C085C60F6C2F6F70EDDF6C2F62953D
:100AE0006F706061C801CF911F910F91E4CFFC013D
:100AF0002781269526952695621730F465832385F0
:100B0000620F6770606BD7CF08951F93CF93DF9309
:100B1000EC01142F8E81681710F4CE01D4DF612F01
:100B2000CE01DF91CF911F91E2CFCF92DF92EF9272
:100B3000FF920F931F93CF93DF93EC01F62EC42EF9
:100B4000D22E1D868F81869586958695081710F082
:100B50000FEF080F1D2D011770F0412F6F2DCE01E3
:100B6000D4DFEF2CCE1428F06889CE0187DFE39420
:100B7000F9CF1F5FF0CF4D2D6F2DCE01DF91CF91BB
:100B80001F910F91FF90EF90DF90CF90BECF0F930A
:100B9000CF93DF93CDE9D8E31B861A8660E4CE01BC
:100BA0008ADF0F8106950695069501504E814150CA
:100BB00020E060E0CE01B9DFDF91CF910F91089581
:100BC0000F93DC0115962C9115971E96ED91FC91D3
:100BD0001F9700E0309779F03396E491F0E0379674
:100BE00083E0F595E7958A95E1F751960C91519739
:100BF0000E9F002D1124EFEFE20F0E0F16964C9171
:100C00001697415014966C911497CD018EDF0F9179
:100C100008952F923F924F925F926F927F928F92A0
:100C20009F92AF92BF92CF92DF92EF92FF920F937B
:100C30001F93CF93DF93CDB7DEB72797CDBFDEBF2E
:100C40008E839F83DC011E968D919C91009709F401
:100C500051C1FC013296549031962491E22EF12C30
:100C6000B7E0EB0EF11C33E0F594E7943A95E1F729
:100C7000E98231963491319644916D3011F5EE81CF
:100C8000FF818681811118C081E090E02796CDBF59
:100C9000DEBFDF91CF911F910F91FF90EF90DF901A
:100CA000CF90BF90AF909F908F907F906F905F900C
:100CB0004F903F902F90089560E08E819F8103DFD9
:100CC000E3CF6A3009F042C0AE81BF8116968C91A5
:100CD0001697882319F060E0CD01F5DEEE81FF81E3
:100CE00081898E9DE02C112465816E0D8485882379
:100CF00049F097819695969596958E2D891B860F2E
:100D0000181624F08E819F81F2DEBECFAE81BF81A6
:100D10001B962C911B97820F87701B968C931B97A9
:100D20009E1915969C931597CD014ADFEE81FF81A0
:100D30008485813009F0A8CF6385660F660F660F42
:100D40006F7362876064CF01B6DE9ECF631760F178
:100D5000A32FA40FBB27BB1F6A171B062CF5631B11
:100D6000212C8C010A5F1F4FEE81FF815185318953
:100D7000539F302D11243D83211014C0FC01349168
:100D80000196FC018491932F0297A0F45E9C900140
:100D90005F9C300D1124629FC001639F900D112450
:100DA000080F191F612C28C0603209F0A3C022244B
:100DB0002394D7CF277088E0682E621A211101C0D2
:100DC000612CF80120E090E080E0621731F034916E
:100DD000830F911D2F5F3196F8CFF801E60FF11DBB
:100DE0005490E89EF001E99EF00DF89EF00D11245C
:100DF000E40FF11D0E0F1F1FAE81BF811496BC9131
:100E0000BA83EE81FF81F581FB83AE81BF811D96A0
:100E1000BC91BC83852C912CAA24A394B12C312C99
:100E2000E9813E1608F064C0412CAE81BF81519625
:100E30008C915197481608F054C0EC811D96EC93A4
:100E4000311002C0442049F0AE81BF8115964C910B
:100E500015974F5F6A81CD0158DED12CC12CC51486
:100E6000A0F5712C211004C0F801EC0DFD1D74904B
:100E7000662061F0EA14FB0449F4E72DF0E0062C4B
:100E800002C0F595E7950A94E2F77E2EEE81FF8188
:100E90008189823071F44420A1F072948FE078222D
:100EA000E72DF0E0E35FF74F7490672D8E819F810F
:100EB000E5DD672D8E819F81E1DD3FEFC31AD30A07
:100EC000CECFF72DFF707F2EEBCFD12C8D81D81692
:100ED00031F060E08E819F81D1DDD394F7CF4394D0
:100EE000A4CF3394AFEFAA1ABA0A080D191D98CFF0
:100EF0006B8108CF90E080E0C9CEDC011896ED91BF
:100F0000FC9184818860848308959C012B5E3F4F0F
:100F1000DC015396EC91539752968C91E81730F47C
:100F2000E20FF32FF11D808190E008958FEF9FEF86
:100F30000895FC01DC01559693898289981740F445
:100F4000A90FB11D2C919F5F938B822F90E0089584
:100F50008FEF9FEF0895FC0182899389891B990B7C
:100F60000895FC01A289A03258F4A80FB92FB11D31
:100F700055966C9382898F5F828B81E090E0089513
:100F800090E080E00895BF92CF92DF92EF92FF92BF
:100F90000F931F93CF93DF937C016A01B62EEB0171
:100FA0000C2F0B1910E00C151D0528F46991C701D1
:100FB000D8DF892BA9F7C801DF91CF911F910F913D
:100FC000FF90EF90DF90CF90BF900895809104380C
:100FD00090910538019680930438909305380897CE
:100FE00024F010920438109205380895089590E086
:100FF00080E008950F931F93CF93DF93EC01062FAA
:10100000142F8B89813188F4882389F0442369F077
:10101000602F85E198E3A5DF123009F13BDC1B8AE4
:10102000DF91CF911F910F91089534DC1B8A80913D
:10103000203881FF08C08A89880F80932638109253
:1010400027381092283860E0111160E485E198E3B8
:1010500088DF602F85E198E384DF1230F9F68B8911
:101060008F5F8B8BDF91CF911F910F910895FC01C2
:1010700001900020E9F73197AF01481B590BBC01E3
:101080008DE998E3CECC8F929F92AF92BF920F934F
:101090001F93CF93DF93CDB7DEB7A197CDBFDEBF50
:1010A00019A2423008F44AE08E010F5D1F4F842ED2
:1010B000912CB12CA12CA50194010E947B17E62F45
:1010C000B901CA01EA30D4F4E05DD801EE938D0194
:1010D000232B242B252B79F790E080E0109711F03B
:1010E000CD01C5DFA196CDBFDEBFDF91CF911F91AE
:1010F0000F91BF90AF909F908F900895E95CE5CFDE
:101100004F925F926F927F928F929F92AF92BF9217
:10111000CF92DF92EF92FF920F931F93CF936B01C9
:101120007C01742EAC019B010E946417882391F00E
:1011300088E590EBCF911F910F91FF90EF90DF909A
:10114000CF90BF90AF909F908F907F906F905F9067
:101150004F908DCF46015701E894B7F82FEF3FEF3E
:101160004FE75FE7C501B4010E94641781110DC00C
:101170002FEF3FEF4FE75FE7C501B4010E94AE15C7
:1011800018161CF48CE590EBD5CF2FEF3FEF4FE70F
:101190005FE4C701B6010E94FD1618161CF480E634
:1011A00090EBC8CF2FEF3FEF4FE75FECC701B601E1
:1011B0000E94AE1587FDF3CF20E030E0A901C70102
:1011C000B6010E94AE1510E000E087FF09C06DE295
:1011D0008DE998E31EDD8C01F7FAF094F7F8F094AE
:1011E000C0E060E070E080E09FE37C1641F020E02A
:1011F00030E040E251E40E94B215CF5FF6CFA70184
:1012000096010E944A152B013C010E941F164B01BA
:101210005C014AE038DF7C01E00EF11ECC23A9F12D
:10122000C501B4010E944B169B01AC01C301B20180
:101230000E9449154B015C0184E690EB18DFE80E33
:10124000F91EC15010F120E030E040E251E4C50148
:10125000B4010E9401172B013C010E941F164B0193
:10126000B12CA12C4AE0C501B4010DDFE80EF91E36
:10127000C501B4010E944B169B01AC01C301B20130
:101280000E9449154B015C01DCCFC701CF911F9132
:101290000F91FF90EF90DF90CF90BF90AF909F9015
:1012A0008F907F906F905F904F900895CF93DF93D2
:1012B0009091203891FF07C090E8909326381092C3
:1012C000273810922838682F85E198E34ADEE2DA61
:1012D00080E88093263882E080932738109228385F
:1012E000E0911D38F0911E3820E23EE440E062E0DB
:1012F000AAE2B8E372E051E88581982F937089F0F3
:101300002150310971F083FD11C09330A9F34111CF
:101310001BC0578320E23EE441E08581982F937003
:1013200079F780912738861B8093273885E198E3E9
:1013300000DED82F80E0C82F85E198E3FADD8C2B02
:101340009D2BDF91CF91089586FD0BC087FFD4CFF1
:1013500080858D93613041F07483642F20E23EE4F8
:10136000CBCF83E08483DDCF87E0848360E0D9CF77
:101370008F929F92AF92BF92CF92DF92EF92FF92A5
:101380000F931F93CF93DF937C016B0181E08EDF7E
:101390005C0182E08BDFEC0181E088DF8C01B5012C
:1013A000BB0C880B990B0E944D162AE037ED43E2E7
:1013B0005CE30E94011720E030E04AE754E40E9419
:1013C000B2154B015C01D695C795D695C795D695B4
:1013D000C795BE0190E080E00E944B162FE632E1F7
:1013E00043E85BE30E9401179B01AC01C501B40116
:1013F0000E944A154B015C0140E060E08DE998E3F2
:1014000084DB86E690EB33DEB70190E080E04AE0D3
:101410003ADE8DE998E3D4DB42E060E08DE998E3C1
:1014200074DB8EE690EB23DE42E0C501B40168DE9A
:101430008DE998E3C5DB44E060E08DE998E365DB86
:1014400081E790EB14DEB801110F880B990B0E9415
:101450004D162AE037ED43E25CE30E9401172DECC4
:101460003CEC4CEC5DE30E94B21520E030E04AE732
:1014700054E40E94B21543E043DE8DE998E3A0DB1B
:1014800046E060E08DE998E340DBC601F0DD8DE9E0
:1014900098E3DF91CF911F910F91FF90EF90DF9034
:1014A000CF90BF90AF909F908F908ACB0E94D01723
:1014B0004F925F926F927F928F929F92AF92BF9264
:1014C000CF92DF92EF92FF920F931F93CF93DF9310
:1014D00000D01F92CDB7DEB76A017B0148015901E8
:1014E0005FB6F894B0E0A0E08E010C5F1F4F662459
:1014F0006A948A179B0709F487C019821A821B8293
:1015000060E07FB6F894FE01329670E027E030E0AC
:1015100008C043E04A95F1F70C9800C0215031090A
:1015200088F0AB01022E02C0559547950A94E2F768
:101530000C9A40FDEECF00C00C9800C00000215076
:10154000310978F7E017F10711F06191DECF7FBE26
:101550001196A13223E0B20761F65FBE6AE070E047
:1015600080E090E034DA03E010E0412C512C3201AD
:1015700081E09CDEBC01990F880B990B0E944D16EF
:101580002AE037ED43E25CE30E9401172DEC3CECCE
:101590004CEC5DE30E94B2159B01AC01C301B201AA
:1015A0000E944A152B013C0163E070E080E090E06E
:1015B0000EDA01501109E1F620E030E040E450E499
:1015C000C301B2010E94B215A70196010E944915FC
:1015D00011E0A50194010E94FD1687FD1AC0812F1C
:1015E0002396CDBFDEBFDF91CF911F910F91FF906A
:1015F000EF90DF90CF90BF90AF909F908F907F90B3
:101600006F905F904F90089569826A826B826FEF4E
:1016100078CF10E0E4CF0F931F93CF93DF9300D0E8
:101620001F92CDB7DEB789836A834B830FB7F894D7
:1016300061E273E0DE0114961FB7F894FE01319663
:10164000419150E087E090E007C023E02A95F1F750
:101650000C9800C0019780F09A01082E02C03595C1
:1016600027950A94E2F70C9A20FDEFCF00C00C9862
:1016700000C00000019780F7AE17BF0709F71FBF32
:1016800061507109C9F60FBF2396CDBFDEBFDF9150
:10169000CF911F910F9108954F925F926F927F9219
:1016A0008F929F92AF92BF92CF92DF92EF92FF9272
:1016B0000F931F93CF93DF9300D01F92CDB7DEB768
:1016C00080914A3890914B3897FD7AC09C0133271E
:1016D0008C3008F06CC3F901E25CFF4480818F3FDD
:1016E00009F465C32E5C3F44D901EC91B0E2EB9F55
:1016F000F0011124FC5F9085892321E009F4D6C014
:10170000022E000C330BE0915438F091553811E063
:101710002E173F0709F010E08FB7F89440910D386D
:1017200050910E3860910F38709110388FBF4093F0
:101730008B3850938C3860938D3870938E388091AD
:101740004C3890914D38009709F087C01093853838
:1017500020918638121709F48AC040938738509335
:1017600088386093893870938A381093863810913E
:10177000853880918F3890919038A0919138B091B0
:1017800092384A015B01881A990AAA0ABB0A809119
:101790008238909183388230910509F4E6C20CF4C6
:1017A00087C08630910509F4A2C28730910509F4FB
:1017B000D7C1039709F468C2109282381092833817
:1017C000809106389091073801968F3F910511F06E
:1017D00008F03EC080930638909307388091043813
:1017E0009091053888309105A8F48650944FFC01FB
:1017F0000C949D17CC0C880C470D350D3E0D500DEB
:10180000590D020C40E060E080E005DF89EAE82E37
:1018100080EBF82E6AE070E080E090E0D8D8B70165
:1018200080910038909101382396CDBFDEBFDF91C3
:10183000CF911F910F91FF90EF90DF90CF90BF90CD
:10184000AF909F908F907F906F905F904F9090CDD2
:101850001092063810920738C1CF2E173F0709F0B3
:1018600077CF97FD73CF20918638121376CF809073
:10187000873890908838A0908938B0908A382A01AB
:101880003B01481859086A087B085301420197FD3B
:1018900019C1092E000CAA0BBB0B88169906AA06C3
:1018A000BB0608F464CF1093853863CF20E028CFBF
:1018B000009709F40BC1019709F07ECF82E090E018
:1018C000112309F4D4C18091503890915138B0E07F
:1018D000A0E088159905AA05BB0508F071CFE09135
:1018E0006E38F0916F38309709F00995E0917038B3
:1018F000F0917138309729F0809172389091733857
:10190000099586E090E0809382389093833858CF91
:10191000AFB6F89430E020E0CE0102967C018E0153
:101920000C5F1F4F72E3C72ED12CBB24BA94F90170
:101930003196CF01B6010E946817B982892B09F050
:101940005EC1232B09F45BC1BA828FEF8B836FB723
:10195000F894D7014FEF50E087E090E007C023E014
:101960002A95F1F70C9800C0019780F09A01082E93
:1019700002C0359527950A94E2F70C9A20FDEFCF27
:1019800000C00C9800C00000019780F70A171B07E1
:1019900009F416C14D91DFCFD0900638CFB6F89438
:1019A000812C912C54019E012E5F3F4F79018E01B5
:1019B0000C5F1F4FC501B40121E233E040E050E06D
:1019C0000E947B178D2D820F8095853508F41AC1F2
:1019D0008A3A08F430C146E5480F242F30E05DEF25
:1019E0005403C001112481509F4F092E000CAA0BF3
:1019F000BB0BBA2FA92F982F8827B901660F771F25
:101A0000260F371FA901330F660B770B842B952BFD
:101A1000A62BB72B2D0166247724442D49829A8367
:101A20008B836FB7F894F70150E087E090E007C030
:101A3000A3E0AA95F1F70C9800C0019780F09A01F5
:101A4000082E02C0359527950A94E2F70C9A20FDDE
:101A5000EFCF00C00C9800C00000019780F70E1770
:101A60001F0709F4B9C04191DFCF40E06FEF80E07C
:101A7000D2DD49E8E42E40EBF42ECCCE4FEF60E00F
:101A800080E0C9DD3FE8E32E30EBF32EC3CE40E02B
:101A900060E08FEFC0DD55E8E52E50EBF52EBACEB5
:101AA0004FE76FE78FE7B7DD24E9E22E20EBF22E58
:101AB000B1CE4FEF6FEF8FEFAEDD9EE9E92E90EBE9
:101AC000F92EA8CE919581959109E3CE8091843825
:101AD000811115C08091523890915338B0E0A0E048
:101AE00088159905AA05BB0550F4E0918038F0915E
:101AF0008138309721F081E0809384380995112353
:101B000009F45ECE81E090E0809382389093833830
:101B100080918B3890918C38A0918D38B0918E380F
:101B200080938F3890939038A0939138B0939238E7
:101B30001092933810929438E0915638F0915738BB
:101B4000309709F00995E0915838F091593830975D
:101B500009F436CE80915A3890915B38099530CE91
:101B6000E0917438F0917538309709F00995E0915B
:101B70007638F0917738309729F0809178389091C5
:101B800079380995109282381092833810929338E0
:101B9000109294382FB7F89480910D3890910E38A8
:101BA000A0910F38B09110382FBF80938F38909349
:101BB0009038A0939138B09392381092843800CE28
:101BC0006FBF9F01E132F34009F0B1CEAFBE6CE7C9
:101BD000E62E60EBF62E1ECE6FBFEFEF9E1AAE0A1A
:101BE000BE0A8114F1E29F06F3E0AF06B10409F0EA
:101BF000E1CECFBEE4E7EE2EE0EBFE2E0BCE1A8256
:101C000080E0A4CE482F50E02DEF2403C001112422
:101C100081509F4F092E000CAA0BBB0BDC019927AA
:101C20008827BA01660F771F460F571F052E000C35
:101C3000660B770BEBCE8555482F50E0CA01880F15
:101C4000991F840F951F092E000CAA0BBB0BBA2FEE
:101C5000A92F982F8827FA01EE0FFF1FEE0FFF1F05
:101C60004E1B5F0B41505F4FE1CF81E090E08093CE
:101C700082389093833840938F3850939038609394
:101C80009138709392389CCD1111EFCF8091933899
:101C90009091943840914E3850914F3870E060E008
:101CA00084169506A606B70640F420919538309123
:101CB00096382817390709F083CD8130910509F44A
:101CC00063C0029709F475C0E0916838F0916938F3
:101CD000309709F00995E0916A38F0916B383097A8
:101CE00009F450CF80916C3890916D384ACF112310
:101CF00009F447C08091993890919A38A0919B3807
:101D0000B0919C38481B590B6A0B7B0B809197381C
:101D100090919838B0E0A0E0481759076A077B0710
:101D200008F44ECDE0917A38F0917B38309709F085
:101D30000995E0917C38F0917D38309729F08091B9
:101D40007E3890917F38099580918B3890918C38AE
:101D5000A0918D38B0918E388093993890939A38AD
:101D6000A0939B38B0939C382BCD80919338909161
:101D700094380196809393389093943883E090E060
:101D8000C2CD87E090E0BFCDE0915C38F0915D3846
:101D9000309709F00995E0915E38F0915F383097FF
:101DA00009F4F0CE8091603890916138EACE2FEF3F
:101DB000A7CCE0916238F0916338309709F009952B
:101DC000E0916438F0916538309709F4DBCE80916A
:101DD000663890916738D5CE2F923F924F925F929E
:101DE0006F927F928F929F92AF92BF92CF92DF922B
:101DF000EF92FF920F931F93CF93DF93CDB7DEB790
:101E00006C97CDBFDEBF19821A821B821C82FFB67F
:101E1000F89461E273E040E0DE011496FE01329630
:101E200050E087E090E007C023E02A95F1F70C9896
:101E300000C0019780F09A01082E02C035952795C1
:101E40000A94E2F70C9A20FDEFCF00C00C9800C076
:101E50000000019780F7AE17BF0711F04191E0CF66
:101E60006150710911F04981D9CFFFBE62E370E082
:101E700080E090E00E94E70405E010E0C12CD12C46
:101E8000760181E013DABC01990F880B990B05D715
:101E90002AE037ED43E25CE3B4D72DEC3CEC4CECAC
:101EA0005DE360D69B01AC01C701B601F3D56B01C0
:101EB0007C0163E070E080E090E00E94E704015064
:101EC0001109F9F620E030E040EA50E4C701B6011C
:101ED00049D66F8B788F898F9A8F8CE0E6E0F0EB94
:101EE000DE01119601900D928A95E1F7CE010196DF
:101EF0008B8F9C8F4E019DE0890E911CEB8DFC8D8C
:101F00004190519061907190EB8FFC8FC301B201B1
:101F100091D61B0190E2A92E93E0B92ED12CC12CB1
:101F200008C06701FFEFCF1ADF0AAC14BD040CF440
:101F300053C07601EA0CFB1CF594E7943F922F9274
:101F40002DEA30EB3F932F931F929AE09F939F923D
:101F50008F920E94D417B401C7010ADA930182015B
:101F60004F89588D698D7A8DC701A2DACDBFDEBF4A
:101F70008111D7CFE114F10479F1570121E0A21AC0
:101F8000B10893014F89588D698D7A8DC50190DA1A
:101F9000882359F2C701FF0CAA0BBB0B80930038B2
:101FA00090930138A0930238B09303386C96CDBF5C
:101FB000DEBFDF91CF911F910F91FF90EF90DF90E7
:101FC000CF90BF90AF909F908F907F906F905F90D9
:101FD0004F903F902F9008958B8D9C8D8816990679
:101FE00009F08CCFE3CFEF92FF920F931F93CF9323
:101FF000DF9300D000D0CDB7DEB79091203891FBB1
:10200000882780F992FD2EC081112CC08091010299
:1020100084FDF5C083E0809326048091203882609F
:1020200080932038E0911D38F0911E3881E0838341
:102030008583E0911D38F0911E389091203891FFF2
:1020400026C096819935A1F02381138299E5968364
:1020500090819D7F9083238320FD8583809120380C
:1020600086958170882399F0E0911D38F0911E3893
:102070008681813161F09381138281E18683808141
:102080008D7F8083938390FF02C081E085831092CF
:10209000B0388CE38093AF381092A1381092A238F8
:1020A000E7E0F8E005911491E9E0F8E08491EAE0D6
:1020B000F8E0E491E093A338EBE0F8E0E491E093FA
:1020C000A438ECE0F8E0E491E093A538882391F09F
:1020D000815078012FEFE21AF20AE80EF11CF801A4
:1020E00064918DE998E30E945B050F5F1F4F0E1509
:1020F0001F05A9F70E94C70560EA8DE998E30E94D1
:102100005B0560EC8DE998E30E945B05E5E9F0E092
:10211000E093AB38F093AC388491E6E9F0E0E491D9
:10212000982F8E2F019709F46EC081E08093A63816
:102130000E94C70519821A821B821C821FB7F8945D
:1021400061E273E040E0DE011496FE01329650E059
:1021500087E090E007C023E02A95F1F70C9800C0D3
:10216000019780F09A01082E02C0359527950A94B0
:10217000E2F70C9A20FDEFCF00C00C9800C00000E1
:10218000019780F7AE17BF0711F04191E0CF615082
:10219000710911F04981D9CF1FBF8AE498E326EE77
:1021A00037E0209358383093593880935A389093B9
:1021B0005B3826E031E1209370383093713880939A
:1021C00072389093733884E190E080934C38909308
:1021D0004D3880E293E0809397389093983864E686
:1021E00070E080E090E00E94E7042496CDBFDEBF5F
:1021F000DF91CF911F910F91FF90EF90EDCD86E091
:10220000809306040ACF1092A63892CFE5CD8F9323
:1022100081E080938D0A8FB78F93EF93FF93E9E06E
:10222000F8E39F9368948FEF0DC0E89484819581C3
:10223000805D9C4F84839583885E934080F0848387
:1022400095838FEF9081981B919390819F4F9193ED
:1022500090819F4F919390819F4F919336F39F91DF
:10226000FF91EF918F918FBF8F9118951F920F92D1
:102270000FB60F9211241F932F933F934F935F93A9
:102280006F937F938F939F93AF93BF93CF93DF937E
:10229000EF93FF93C0911338D09114382097B9F180
:1022A000A885B9851B961C911B9716FF53C08B857B
:1022B00083FF09C0877F8B87EF85F889309719F0F6
:1022C0008A8990E0099510FF3BC08A8981110BC073
:1022D00080910838811107C08091500080930838A0
:1022E0008170809350001A8A1B8AE885F98585855C
:1022F000898B11FF20C0ED85FE85309709F0099587
:102300008A8981111BC086E0E885F9858287FF9163
:10231000EF91DF91CF91BF91AF919F918F917F917D
:102320006F915F914F913F912F911F910F900FBE31
:102330000F901F9018958B8588608B8783E0E4CF82
:102340008091083880935000109208381A8A1B8AAE
:1023500082E0DACF17FF2EC09E012B5E3F4F11FFA8
:102360001AC08A85182321F088E08A871A8AF0CF5C
:102370008C898F5F8C8B88E18A87EB898A89E81743
:10238000A8F7E20FF32FF11D80811D968C938B89A6
:102390008F5F8B8BD3CF1D968C91EA89E03250F4FE
:1023A000E20FF32FF11D80838A898F5F8A8B803241
:1023B00029F6A9CF80E0A8CF049A0C980895E5E10A
:1023C000F8E31282138288EE93E0A0E0B0E0848309
:1023D0009583A683B78384E290EB80839183E09317
:1023E0001338F093143880E198E080879187E4DF18
:1023F0000E943A048EE490EB80939D3890939E382F
:10240000EAE4F8E382E390E08283938380E991E059
:102410008483958380E293E08683978388EE93E0BC
:1024200080879187128613861486158616861786EE
:10243000108A118A128A138A148A158A168A178AB0
:10244000108E118E128E138E148E158E168E178E80
:1024500010A211A212A213A214A215A216A217A2D0
:1024600010A611A612A613A614A615A616A617A6A0
:1024700010AA11AA12AA13AA14AA15AA16AA17AA70
:1024800010AE11AE12AE13AE14AE10928738109289
:1024900088381092893810928A3810928B381092AE
:1024A0008C3810928D3810928E3810928F3810928E
:1024B000903810929138109292381092933810926E
:1024C000943881E090E080939538909396381092FC
:1024D0009738109298381092993810929A38109232
:1024E0009B3810929C388083918380E28093020411
:1024F000E5E0F4E080898860808B089588ED90E0C5
:1025000084BF90936100E0E0F6E083E582838DE094
:10251000858380E2838381E080831092020280932E
:10252000030A9EEF9093260A9093270A9BE09093CC
:10253000000AE0E8FAE02DEF31E026A737A7118284
:1025400090E89283848781E1808378944CDDA4D8DD
:10255000FECFABE0B0E0EEEAF2E16AC27C013B0103
:102560008A01FC0116821782838181FFBAC1CE01E4
:1025700001965C01F7019381F30193FD859193FF2F
:1025800081913F01882309F449C1853239F493FDD3
:10259000859193FF81913F01853221F4B70190E04D
:1025A000B9D1E8CF912C212C312CFFE1F31538F073
:1025B0008B3211F190F4803209F1833229F137FC2A
:1025C0003CC020ED280F2A3050F536FE20C08AE0AE
:1025D000989E200D1124922E06C08D3291F08033EA
:1025E00071F7689430F8F30193FD859193FF819121
:1025F0003F018111DACF21C0689431F8689432F834
:10260000F2CF689433F8EFCF689434F8ECCFEAE077
:102610002E9E200D1124222E689435F8E4CF8E32A0
:1026200029F436FCFBC0689436F8DDCF8C3619F4FB
:10263000689437F8D8CF8836B1F2982F9F7D95549B
:102640009330D8F0833691F18337B1F1833509F0B7
:102650005EC02801F2E04F0E511CF801C080D1800D
:10266000692D70E036FC02C06FEF7FEFC6013CD1F0
:102670004C01689437F882010AC00C5F1F4FFFE3DA
:10268000F98388248394912C6501E89437F833FE0C
:102690002AC0522C8114910459F5552009F46ACFAF
:1026A000B70180E290E036D15A94F7CFF8018081EB
:1026B00089830E5F1F4FE5CF2801F2E04F0E511CBA
:1026C000F801C080D180692D70E036FC02C06FEF48
:1026D0007FEFC60114D14C018201D7CFB70180E250
:1026E00090E018D12A942814190409F0B8F7D1CF32
:1026F000F60137FC859137FE81916F01B70190E0BB
:1027000009D151105A94F1E08F1A9108C3CF843641
:1027100019F0893609F073C0F80137FE67C060818F
:102720007181828193810C5F1F4FF32DFF763F2EC5
:1027300097FF09C090958095709561957F4F8F4F59
:102740009F4F689437F82AE030E0A50113D1C82ED6
:10275000CA188C2C432C36FE0CC0E89440F8C914DF
:1027600040F434FE05C032FC03C0F32DFE7E4F2E34
:10277000892C44FE90C0FE01EC0DF11D8081803358
:1027800009F082C0242D297E422E842D8870582E77
:1027900043FC8FC040FE89C09C2C821418F42C0C82
:1027A000922C981844FE8BC0B70180E390E0B2D021
:1027B00042FE08C088E790E041FE02C088E590E054
:1027C000B701A8D0C91408F486C0CA94D12C9FEFD1
:1027D000C91AD90ACA0CDB1CF60182916F01B70134
:1027E00090E098D0AC14BD04B9F757CF60817181E7
:1027F000072E000C880B990B0E5F1F4F96CFD32C22
:10280000E894D4F82AE030E0853731F1232D297F90
:10281000D22E8F36F9F040F48835A1F0F701868189
:1028200097812B96E2E11DC1803749F08837B1F7D7
:10283000D4FE02C06894D2F820E130E00DC0689464
:10284000D4F8F6CF34FE03C0822F8660D82E20E164
:1028500032E002C028E030E0F801D7FE0EC060810F
:102860007181828193810C5F1F4FA50183D0C82E97
:10287000CA183D2CE89437F86CCF6081718190E0E4
:1028800080E00E5F1F4FF1CF42FC02C083947DCFEA
:10289000839483947ACF842D867809F476CFF6CF0B
:1028A000B70180E290E036D083948214C8F3512CB3
:1028B00079CF522C5818821408F474CFF8CF842D95
:1028C000867809F47FCF8BE241FE80E247FC8DE2FF
:1028D000B70190E076CFB70180E390E01BD09A94E7
:1028E00071CF8FEF9FEF9DCFFC010590615070403D
:1028F0000110D8F7809590958E0F9F1F0895FC01C9
:102900006150704001900110D8F7809590958E0F1E
:102910009F1F08950F931F93CF93DF93182F092FB5
:10292000EB018B8181FD09C01FEF0FEF812F902FED
:10293000DF91CF911F910F91089582FF14C02E81D6
:102940003F818C819D81281739073CF4E881F9810A
:10295000CF0101968883998310838E819F81019690
:102960008E839F83E3CFE885F985812F0995892B95
:10297000A1F3DACFFA01AA27283051F1203181F1F1
:10298000E8946F936E7F6E5F7F4F8F4F9F4FAF4F77
:10299000B1E03ED0B4E03CD0670F781F891F9A1F8A
:1029A000A11D680F791F8A1F911DA11D6A0F711D3E
:1029B000811D911DA11D20D009F468943F912AE04A
:1029C000269F11243019305D3193DEF6CF01089532
:1029D000462F4770405D4193B3E00FD0C9F7F6CF63
:1029E000462F4F70405D4A3318F0495D31FD40522B
:1029F000419302D0A9F7EACFB4E0A69597958795C1
:102A000077956795BA95C9F700976105710508959F
:102A10009B01AC010A2E069457954795379527954B
:102A2000BA95C9F7620F731F841F951FA01D0895E3
:102A30002F923F924F925F926F927F928F929F92CE
:102A4000AF92BF92CF92DF92EF92FF920F931F93BC
:102A5000CF93DF93CDB7DEB7CA1BDB0BCDBFDEBF95
:102A600009942A88398848885F846E847D848C84A0
:102A70009B84AA84B984C884DF80EE80FD800C81A9
:102A80001B81AA81B981CE0FD11DCDBFDEBFED0163
:102A900008955058BB27AA270ED075C166D130F0D3
:102AA0006BD120F031F49F3F11F41EF45BC10EF4A2
:102AB000E095E7FB51C1E92F77D180F3BA176207A0
:102AC00073078407950718F071F49EF58FC10EF413
:102AD000E0950B2EBA2FA02D0B01B90190010C012E
:102AE000CA01A0011124FF27591B99F0593F50F446
:102AF000503E68F11A16F040A22F232F342F44279E
:102B0000585FF3CF469537952795A795F040539595
:102B1000C9F77EF41F16BA0B620B730B840BBAF065
:102B20009150A1F0FF0FBB1F661F771F881FC2F7D0
:102B30000EC0BA0F621F731F841F48F487957795E4
:102B40006795B795F7959E3F08F0B3CF9395880F9B
:102B500008F09927EE0F979587950895D9D008F436
:102B600081E008950CD00FC107D140F0FED030F0C5
:102B700021F45F3F19F0F0C0511139C1F3C014D1F5
:102B800098F39923C9F35523B1F3951B550BBB2734
:102B9000AA2762177307840738F09F5F5F4F220FE1
:102BA000331F441FAA1FA9F333D00E2E3AF0E0E8DA
:102BB00030D091505040E695001CCAF729D0FE2F26
:102BC00027D0660F771F881FBB1F261737074807B8
:102BD000AB07B0E809F0BB0B802DBF01FF2793586E
:102BE0005F4F2AF09E3F510568F0B6C000C15F3FBD
:102BF000ECF3983EDCF3869577956795B795F79556
:102C00009F5FC9F7880F911D9695879597F908954D
:102C1000E1E0660F771F881FBB1F621773078407E9
:102C2000BA0720F0621B730B840BBA0BEE1F88F7F8
:102C3000E095089504D06894B111D9C00895BCD02E
:102C400088F09F5790F0B92F9927B751A0F0D1F095
:102C5000660F771F881F991F1AF0BA95C9F712C01F
:102C6000B13081F0C3D0B1E00895C0C0672F782F94
:102C70008827B85F39F0B93FCCF38695779567958B
:102C8000B395D9F73EF490958095709561957F4FF7
:102C90008F4F9F4F0895E89409C097FB3EF490959D
:102CA0008095709561957F4F8F4F9F4F9923A9F025
:102CB000F92F96E9BB279395F695879577956795B4
:102CC000B795F111F8CFFAF4BB0F11F460FF1BC0F8
:102CD0006F5F7F4F8F4F9F4F16C0882311F096E98B
:102CE00011C0772321F09EE8872F762F05C0662339
:102CF00071F096E8862F70E060E02AF09A95660FF2
:102D0000771F881FDAF7880F9695879597F90895AA
:102D1000990F0008550FAA0BE0E8FEEF16161706EC
:102D2000E807F907C0F012161306E407F50798F054
:102D3000621B730B840B950B39F40A2661F0232B6D
:102D4000242B252B21F408950A2609F4A140A695E9
:102D50008FEF811D811D089597F99F6780E870E0CE
:102D600060E008959FEF80EC089500240A94161601
:102D7000170618060906089500240A941216130669
:102D8000140605060895092E0394000C11F48823F7
:102D900052F0BB0F40F4BF2B11F460FF04C06F5F13
:102DA0007F4F8F4F9F4F089557FD9058440F551FE9
:102DB00059F05F3F71F04795880F97FB991F61F0BD
:102DC0009F3F79F087950895121613061406551F34
:102DD000F2CF4695F1DF08C0161617061806991FA0
:102DE000F1CF86957105610508940895E894BB2795
:102DF00066277727CB0197F908958ADF08F48FEFCC
:102E000008950BD0C0CFB1DF28F0B6DF18F09523BE
:102E100009F0A2CFA7CF1124EACFC6DFA0F3959F78
:102E2000D1F3950F50E0551F629FF001729FBB27B1
:102E3000F00DB11D639FAA27F00DB11DAA1F649F5D
:102E40006627B00DA11D661F829F2227B00DA11D10
:102E5000621F739FB00DA11D621F839FA00D611D96
:102E6000221F749F3327A00D611D231F849F600DB7
:102E7000211D822F762F6A2F11249F5750408AF0F0
:102E8000E1F088234AF0EE0FFF1FBB1F661F771F7C
:102E9000881F91505040A9F79E3F510570F05CCFBC
:102EA000A6CF5F3FECF3983EDCF386957795679568
:102EB000B795F795E7959F5FC1F7FE2B880F911D9A
:102EC0009695879597F9089523DF880B990B0895B8
:102ED00097FB072E16F4009406D077FD08D03DD05E
:102EE00007FC05D03EF4909581959F4F089570950D
:102EF00061957F4F0895A1E21A2EAA1BBB1BFD010D
:102F00000DC0AA1FBB1FEE1FFF1FA217B307E407C8
:102F1000F50720F0A21BB30BE40BF50B661F771F20
:102F2000881F991F1A9469F7609570958095909500
:102F30009B01AC01BD01CF010895EE0FFF1F05906D
:102F4000F491E02D09941DD0A59F900DB49F900D94
:102F5000A49F800D911D11240895AA1BBB1B51E154
:102F600007C0AA1FBB1FA617B70710F0A61BB70BF9
:102F7000881F991F5A95A9F780959095BC01CD019E
:102F80000895A29FB001B39FC001A39F700D811D42
:102F90001124911DB29F700D811D1124911D089562
:102FA00081E090E0F8942DC0AEE0B0E0E9EDF7E10B
:102FB0004DCD0D891E898F89988D26E02C8309833C
:102FC0001A8397FF02C080E090E801978D839E836B
:102FD000AE01455E5F4F698D7A8DCE010196B9DAFB
:102FE0004D815E8157FD0AC02F81388542175307F6
:102FF0000CF49A01020F131FF80110822E96E4E0E0
:063000003ECDF894FFCF65
:10300600000020410000A0400000404000000000F9
:1030160009061105F707F607560A00000000B10772
:10302600C307F7077D07AB07990785070000000070
:103036000101010100000000102040800804020187
:10304600020408010000000009061105F707F6074B
:10305600FA076E616E00696E66006F7666002E0076
:10306600506978656C733A00563A00413A005261ED
:10307600696E626F77004576657279203530005249
:10308600656400477265656E00426C756500353093
:1030960025205768697465003130302520576869E6
:0E30A6007465004F666600436E74202564005A
:00000001FF
