:100000004BC1000072C1000070C100006EC1000051
:100010006CC100006AC1000068C1000066C1000038
:1000200064C1000062C1000060C100005EC1000048
:100030005CC100005AC1000058C100000C94A70E1A
:1000400054C1000052C1000050C100004EC1000068
:100050004CC100004AC1000048C1000046C1000078
:100060000C94D60E42C1000040C100003EC1000009
:100070003CC100003AC1000038C10000AED580A8E4
:100080003FD300408D142002A1C8DA12817FD9F13C
:10009000DB40A4A6AF0000050720610000000000BF
:1000A00000005F00000007000700147F147F142485
:1000B0002A7F2A122313086462364955225000050C
:1000C000030000001C2241000041221C00082A1CE1
:1000D0002A0808083E0808005030000008080808F0
:1000E00008006060000020100804023E5149453EAF
:1000F00000427F400042615149462141454B311841
:1001000014127F1027454545393C4A494930017151
:100110000905033649494936064949291E0036363C
:100120000000005636000000081422411414141474
:100130001441221408000201510906324979413E56
:100140007E1111117E7F494949363E414141227F4E
:100150004141221C7F494949417F090901013E4132
:100160004151327F0808087F00417F410020404113
:100170003F017F081422417F404040407F0204023B
:100180007F7F0408107F3E4141413E7F09090906F7
:100190003E4151215E7F09192946464949493101AD
:1001A000017F01013F4040403F1F2040201F7F2032
:1001B00018207F6314081463030478040361514911
:1001C000454300007F4141020408102041417F0067
:1001D00000040201020440404040400001020400CB
:1001E00020545454787F4844443838444444203898
:1001F0004444487F3854545418087E0901020814B6
:1002000054543C7F0804047800447D40002040445E
:100210003D00007F10284400417F40007C0418040A
:10022000787C0804047838444444387C1414140856
:10023000081414187C7C08040408485454542004FE
:100240003F4440203C4040207C1C2040201C3C403F
:1002500030403C44281028440C5050503C446454D6
:100260004C44000836410000007F00000041360881
:100270000008082A1C08081C2A08080006090906A4
:100280007C001980400000030C0F30333C3FC0C39A
:10029000CCCFF0F3FCFF7F0F11241FBECFEFCDBFFB
:1002A000DFE3DEBF8091400080934000811105C0F4
:1002B00098ED21E094BF209341008CBB28E3A0E09F
:1002C000B8E301C01D92A13BB207E1F711E0CCE415
:1002D000D1E004C02197FE010E943D15CB34D10727
:1002E000C9F70E941E100C94A1158ACEEDE9F8E31F
:1002F0001282138286E59BEA808391831486158699
:1003000016861786108A81E0818B0895E0911D384A
:10031000F0911E38838180FD02C080E108956091D4
:1003200026389091273820E23EE480E0AAE2B8E344
:100330006E7F4581542F537081F32150310979F438
:1003400085E0523021F084E0513009F481E12091C0
:100350002738291B2093273893E09483089543FD81
:100360001FC0533031F3811105C0678320E23EE4A2
:1003700081E0DFCF46FFDDCF44FF07C081FF0EC025
:1003800083E09111E4CF80E0E2CF9923E1F32D9156
:1003900020879150826020E23EE4CBCF82E0D7CF2D
:1003A00082E10895CF92DF92EF92FF929FB7F89487
:1003B00088E08093840A80918E0A81FFFCCF80912F
:1003C0008D0AE091A20AF091A30AC0900938D0905A
:1003D0000A38E0900B38F0900C389FBF80FF08C0BF
:1003E000E730F10528F48FEFC81AD80AE80AF80AAE
:1003F0009F0136952795CF01820F911DE22FE6953B
:10040000E695322F32953F70E31BFF0B27FD3196A7
:10041000E80FF91FA0E3B3E0A70196010E9443157E
:10042000F694E794D794C794C60ED71EE81EF91E1B
:10043000C701B6016E0F7F1F811D911DFF90EF90C8
:10044000DF90CF900895CF92DF92EF92FF92CF93FB
:10045000DF936B017C01A6DFEB01A4DF6C1B7D0B3E
:10046000683E7340A0F0C114D104E104F10439F4F2
:10047000DF91CF91FF90EF90DF90CF90089581E0D2
:10048000C81AD108E108F108C851DC4FE6CFC11401
:10049000D104E104F10409F7EBCFAF92BF92CF9200
:1004A000DF92EF92FF920F931F93CF93DF936C0134
:1004B0007B018B01040F151FEB015E01AE18BF0815
:1004C000C017D10759F06991D601ED91FC910190C7
:1004D000F081E02DC6010995892B79F7C501DF91DF
:1004E000CF911F910F91FF90EF90DF90CF90BF9031
:1004F000AF900895CF93DF93EC018D85882329F089
:1005000081508D87DF91CF9108959C818E819817BE
:10051000C8F788896827E881F9810084F185E02D92
:1005200042E0CE0109958C818F5F8C83EBCFDC019B
:10053000ED91FC910084F185E02D40E009940F934A
:100540001F93CF938C01FC016483C085C60F6C2F71
:100550006F70EDDF6C2F62956F706061C801CF9195
:100560001F910F91E4CFFC012781269526952695B2
:10057000621730F465832385620F6770606BD7CF95
:1005800008951F93CF93DF93EC01142F8E8168178A
:1005900010F4CE01D4DF612FCE01DF91CF911F91F6
:1005A000E2CFCF92DF92EF92FF920F931F93CF9300
:1005B000DF93EC01F62EC42ED22E1D868F818695F8
:1005C00086958695081710F00FEF080F1D2D01175F
:1005D00070F0412F6F2DCE01D4DFEF2CCE1428F018
:1005E0006889CE0187DFE394F9CF1F5FF0CF4D2DEF
:1005F0006F2DCE01DF91CF911F910F91FF90EF9062
:10060000DF90CF90BECF0F93CF93DF93CDE9D8E3A8
:100610001B861A8660E4CE018ADF0F810695069557
:10062000069501504E81415020E060E0CE01B9DFD7
:10063000DF91CF910F9108950F93DC0115962C91C6
:1006400015971E96ED91FC911F9700E0309779F079
:100650003396E491F0E0379683E0F595E7958A9537
:10066000E1F751960C9151970E9F002D1124EFEF59
:10067000E20F0E0F16964C911697415014966C91FE
:100680001497CD018EDF0F9108952F923F924F92D4
:100690005F926F927F928F929F92AF92BF92CF9212
:1006A000DF92EF92FF920F931F93CF93DF93CDB71B
:1006B000DEB72797CDBFDEBF8E839F83DC011E96FA
:1006C0008D919C91009709F451C1FC013296549090
:1006D00031962491E22EF12CB7E0EB0EF11C33E0C1
:1006E000F594E7943A95E1F7E982319634913196A1
:1006F00044916D3011F5EE81FF818681811118C022
:1007000081E090E02796CDBFDEBFDF91CF911F91B2
:100710000F91FF90EF90DF90CF90BF90AF909F90A0
:100720008F907F906F905F904F903F902F900895A3
:1007300060E08E819F8103DFE3CF6A3009F042C021
:10074000AE81BF8116968C911697882319F060E0D0
:10075000CD01F5DEEE81FF8181898E9DE02C112493
:1007600065816E0D8485882349F0978196959695CD
:1007700096958E2D891B860F181624F08E819F81E9
:10078000F2DEBECFAE81BF811B962C911B97820FEC
:1007900087701B968C931B979E1915969C931597A3
:1007A000CD014ADFEE81FF818485813009F0A8CF39
:1007B0006385660F660F660F6F7362876064CF0193
:1007C000B6DE9ECF631760F1A32FA40FBB27BB1F1C
:1007D0006A171B062CF5631B212C8C010A5F1F4F27
:1007E000EE81FF8151853189539F302D11243D8346
:1007F000211014C0FC0134910196FC018491932FC7
:100800000297A0F45E9C90015F9C300D1124629FC2
:10081000C001639F900D1124080F191F612C28C07F
:10082000603209F0A3C022242394D7CF277088E038
:10083000682E621A211101C0612CF80120E090E0BD
:1008400080E0621731F03491830F911D2F5F319654
:10085000F8CFF801E60FF11D5490E89EF001E99EF3
:10086000F00DF89EF00D1124E40FF11D0E0F1F1F67
:10087000AE81BF811496BC91BA83EE81FF81F58170
:10088000FB83AE81BF811D96BC91BC83852C912CCE
:10089000AA24A394B12C312CE9813E1608F064C03F
:1008A000412CAE81BF8151968C915197481608F02A
:1008B00054C0EC811D96EC93311002C0442049F0E5
:1008C000AE81BF8115964C9115974F5F6A81CD011E
:1008D00058DED12CC12CC514A0F5712C211004C0F8
:1008E000F801EC0DFD1D7490662061F0EA14FB0424
:1008F00049F4E72DF0E0062C02C0F595E7950A943F
:10090000E2F77E2EEE81FF818189823071F44420EE
:10091000A1F072948FE07822E72DF0E0EA57FD4FC6
:100920007490672D8E819F81E5DD672D8E819F817B
:10093000E1DD3FEFC31AD30ACECFF72DFF707F2E34
:10094000EBCFD12C8D81D81631F060E08E819F8164
:10095000D1DDD394F7CF4394A4CF3394AFEFAA1A49
:10096000BA0A080D191D98CF6B8108CF90E080E07E
:10097000C9CEDC011896ED91FC9184818860848356
:1009800008959C012B5E3F4FDC015396EC915397E9
:1009900052968C91E81730F4E20FF32FF11D80810D
:1009A00090E008958FEF9FEF0895FC01DC015596CC
:1009B00093898289981740F4A90FB11D2C919F5FEC
:1009C000938B822F90E008958FEF9FEF0895FC01A5
:1009D00082899389891B990B0895FC01A289A03211
:1009E00058F4A80FB92FB11D55966C9382898F5F6B
:1009F000828B81E090E0089590E080E00895BF92BE
:100A0000CF92DF92EF92FF920F931F93CF93DF93DA
:100A10007C016A01B62EEB010C2F0B1910E00C15AE
:100A20001D0528F46991C701D8DF892BA9F7C801F2
:100A3000DF91CF911F910F91FF90EF90DF90CF90BA
:100A4000BF90089580910438909105380196809365
:100A5000043890930538089724F0109204381092C7
:100A600005380895089590E080E008950F931F934E
:100A7000CF93DF93EC01062F142F8B89813188F4FB
:100A8000882389F0442369F0602F85E198E3A5DF8E
:100A9000123009F13BDC1B8ADF91CF911F910F913E
:100AA000089534DC1B8A8091203881FF08C08A8930
:100AB000880F80932638109227381092283860E0EB
:100AC000111160E485E198E388DF602F85E198E308
:100AD00084DF1230F9F68B898F5F8B8BDF91CF919A
:100AE0001F910F910895FC0101900020E9F73197C3
:100AF000AF01481B590BBC018DE998E3CECC8F9216
:100B00009F92AF92BF920F931F93CF93DF93CDB776
:100B1000DEB7A197CDBFDEBF19A2423008F44AE08C
:100B20008E010F5D1F4F842E912CB12CA12CA5019D
:100B300094010E941B15E62FB901CA01EA30D4F4D2
:100B4000E05DD801EE938D01232B242B252B79F723
:100B500090E080E0109711F0CD01C5DFA196CDBFE8
:100B6000DEBFDF91CF911F910F91BF90AF909F900B
:100B70008F900895E95CE5CF4F925F926F927F92DC
:100B80008F929F92AF92BF92CF92DF92EF92FF929D
:100B90000F931F93CF936B017C01742EAC019B01CB
:100BA0000E940415882391F088E99BEACF911F9158
:100BB0000F91FF90EF90DF90CF90BF90AF909F90FC
:100BC0008F907F906F905F904F908DCF460157012F
:100BD000E894B7F82FEF3FEF4FE75FE7C501B401A7
:100BE0000E94041581110DC02FEF3FEF4FE75FE723
:100BF000C501B4010E944E1318161CF48CE99BEA3F
:100C0000D5CF2FEF3FEF4FE75FE4C701B6010E945A
:100C10009D1418161CF480EA9BEAC8CF2FEF3FEF13
:100C20004FE75FECC701B6010E944E1387FDF3CF7B
:100C300020E030E0A901C701B6010E944E1310E088
:100C400000E087FF09C06DE28DE998E31EDD8C01AD
:100C5000F7FAF094F7F8F094C0E060E070E080E01C
:100C60009FE37C1641F020E030E040E251E40E9436
:100C70005213CF5FF6CFA70196010E94EA122B0113
:100C80003C010E94BF134B015C014AE038DF7C014C
:100C9000E00EF11ECC23A9F1C501B4010E94EB13B3
:100CA0009B01AC01C301B2010E94E9124B015C013E
:100CB00084EA9BEA18DFE80EF91EC15010F120E02B
:100CC00030E040E251E4C501B4010E94A1142B01BF
:100CD0003C010E94BF134B01B12CA12C4AE0C5017D
:100CE000B4010DDFE80EF91EC501B4010E94EB133B
:100CF0009B01AC01C301B2010E94E9124B015C01EE
:100D0000DCCFC701CF911F910F91FF90EF90DF9043
:100D1000CF90BF90AF909F908F907F906F905F909B
:100D20004F900895CF93DF939091203891FF07C0A3
:100D300090E8909326381092273810922838682F20
:100D400085E198E34ADEE2DA80E88093263882E0A3
:100D50008093273810922838E0911D38F0911E3882
:100D600020E23EE440E062E0AAE2B8E372E051E84B
:100D70008581982F937089F02150310971F083FD9E
:100D800011C09330A9F341111BC0578320E23EE408
:100D900041E08581982F937079F780912738861BE1
:100DA0008093273885E198E300DED82F80E0C82FB4
:100DB00085E198E3FADD8C2B9D2BDF91CF9108958F
:100DC00086FD0BC087FFD4CF80858D93613041F0C5
:100DD0007483642F20E23EE4CBCF83E08483DDCFB5
:100DE00087E0848360E0D9CF8F929F92AF92BF92C9
:100DF000CF92DF92EF92FF920F931F93CF93DF93E7
:100E00007C016B0181E08EDF5C0182E08BDFEC0115
:100E100081E088DF8C01B501BB0C880B990B0E9427
:100E2000ED132AE037ED43E25CE30E94A11420E0D9
:100E300030E04AE754E40E9452134B015C01D6951E
:100E4000C795D695C795D695C795BE0190E080E029
:100E50000E94EB132FE632E143E85BE30E94A1140A
:100E60009B01AC01C501B4010E94EA124B015C0177
:100E700040E060E08DE998E384DB86EA9BEA33DEBC
:100E8000B70190E080E04AE03ADE8DE998E3D4DBF8
:100E900042E060E08DE998E374DB8EEA9BEA23DEB2
:100EA00042E0C501B40168DE8DE998E3C5DB44E0AA
:100EB00060E08DE998E365DB81EB9BEA14DEB80125
:100EC000110F880B990B0E94ED132AE037ED43E2D6
:100ED0005CE30E94A1142DEC3CEC4CEC5DE30E9421
:100EE000521320E030E04AE754E40E94521343E0FA
:100EF00043DE8DE998E3A0DB46E060E08DE998E30E
:100F000040DBC601F0DD8DE998E3DF91CF911F91C1
:100F10000F91FF90EF90DF90CF90BF90AF909F9098
:100F20008F908ACB0E9470154F925F926F927F9242
:100F30008F929F92AF92BF92CF92DF92EF92FF92E9
:100F40000F931F93CF93DF934A015B0168017901EF
:100F5000BFB7F89470E060E0AFB7F89441E086174F
:100F6000970709F040E0419550E027E030E008C0E5
:100F7000E3E0EA95F1F70C9800C02150310988F0C0
:100F8000FA01022E02C0F595E7950A94E2F70C9A51
:100F9000E0FDEECF00C00C9800C0000021503109E8
:100FA00078F727E030E008C0E3E0EA95F1F70C9825
:100FB00000C02150310988F0FA01022E02C0F595D7
:100FC000E7950A94E2F70C9AE0FDEECF00C00C988A
:100FD00000C000002150310978F727E030E008C058
:100FE000E3E0EA95F1F70C9800C02150310988F050
:100FF000FA01022E02C0F595E7950A94E2F70C9AE1
:10100000E0FDEECF00C00C9800C000002150310977
:1010100078F7AFBF6F5F7F4F613223E0720709F04F
:101020009BCFBFBF6AE070E080E090E00CDAC3E0E5
:10103000D0E0412C512C320181E074DEBC01990FCB
:10104000880B990B0E94ED132AE037ED43E25CE335
:101050000E94A1142DEC3CEC4CEC5DE30E94521379
:101060009B01AC01C301B2010E94EA122B013C01B9
:1010700063E070E080E090E0E6D92197E9F620E0B7
:1010800030E040E450E4C301B2010E945213A501D4
:1010900094010E94E912C1E0A70196010E949D14EB
:1010A00087FDC0E08C2FDF91CF911F910F91FF90B2
:1010B000EF90DF90CF90BF90AF909F908F907F90F8
:1010C0006F905F904F900895CF93DF93DFB7F894C0
:1010D000E62FF0E0682F70E050E0A1E2B3E0CFB778
:1010E000F89487E090E007C023E02A95F1F70C9888
:1010F00000C0019780F09F01082E02C0359527950A
:101100000A94E2F70C9A20FDEFCF00C00C9800C0C3
:101110000000019780F787E090E007C023E02A9560
:10112000F1F70C9800C0019780F09B01082E02C0D7
:10113000359527950A94E2F70C9A20FDEFCF00C071
:101140000C9800C00000019780F787E090E007C08E
:1011500023E02A95F1F70C9800C0019780F09A01DE
:10116000082E02C0359527950A94E2F70C9A20FDC7
:10117000EFCF00C00C9800C00000019780F7CFBFF0
:10118000119709F0ACCFDFBFDF91CF9108954F9257
:101190005F926F927F928F929F92AF92BF92CF9207
:1011A000DF92EF92FF920F931F93CF93DF93809183
:1011B0004A3890914B3897FD7AC09C0133278C3088
:1011C00008F081C3F901E258F44580818F3F09F4AA
:1011D0007AC32E583445D901EC91B0E2EB9FF0016F
:1011E0001124FC5F9085892331E020E009F4A6C03A
:1011F000832F922F209154383091553811E02817C1
:10120000390709F010E0EFB7F89440910D3850918C
:101210000E3860910F3870911038EFBF40938B38C3
:1012200050938C3860938D3870938E382817390717
:1012300031F480914C3890914D3897FDA5C0809144
:101240008638181709F47CC0409387385093883843
:101250006093893870938A38109386381091853856
:1012600080918F3890919038A0919138B0919238B8
:101270006A017B01C81AD90AEA0AFB0A80918238FE
:10128000909183388230910509F4ABC20CF423C2EB
:101290008630910509F47CC08730910509F4B1C20C
:1012A000039709F442C210928238109283388091D9
:1012B00006389091073801968F3F910511F008F09C
:1012C00038C08093063890930738E0910438F09145
:1012D0000538E830F10590F4E059F64F0C943D15CF
:1012E000060AA90A190B200B270B2E0B350B7809C0
:1012F00040E060E080E0E8DEC9EEDBEA6AE070E052
:1013000080E090E0A0D8BE01809100389091013833
:10131000DF91CF911F910F91FF90EF90DF90CF90D1
:10132000BF90AF909F908F907F906F905F904F9005
:101330005BCD1092063810920738C7CF30E058CFF7
:101340008091873890918838A0918938B0918A38F7
:101350006A017B01C81AD90AEA0AFB0A80914C3853
:1013600090914D3897FF03C0919581959109092E71
:10137000000CAA0BBB0BC816D906EA06FB0608F43C
:101380006DCF109385386CCF81E08093853857CF2F
:10139000112309F495C28091993890919A38A091BF
:1013A0009B38B0919C38481B590B6A0B7B0B809182
:1013B000973890919838B0E0A0E0481759076A072D
:1013C0007B0708F474CFE0917A38F0917B3830973E
:1013D00009F00995E0917C38F0917D38309729F03B
:1013E00080917E3890917F38099580918B389091CB
:1013F0008C38A0918D38B0918E3880939938909325
:101400009A38A0939B38B0939C3851CFC09106383E
:10141000DFB7F894C12CD12C760181E2882E83E0CD
:10142000982EA12CB12CC701B601A50194010E94F0
:101430001B158C2F820F8095853508F420C18A3AC0
:1014400008F42DC126E5280F422F50E07DEF7203EE
:10145000C001112481509F4F092E000CAA0BBB0B19
:10146000BA2FA92F982F88279A01220F331F420FD6
:10147000531F052E000C660B770B842B952BA62B88
:10148000B72B2D0166247724482F6FB7F894E92FE6
:10149000F0E087E090E007C0A3E0AA95F1F70C9890
:1014A00000C0019780F09F01082E02C03595279556
:1014B0000A94E2F70C9A20FDEFCF00C00C9800C010
:1014C0000000019780F787E090E007C023E02A95AD
:1014D000F1F70C9800C0019780F09201082E02C02D
:1014E000359527950A94E2F70C9A20FDEFCF00C0BE
:1014F0000C9800C00000019780F750E087E090E072
:1015000007C073E07A95F1F70C9800C0019780F05E
:101510009A01082E02C0359527950A94E2F70C9A95
:1015200020FDEFCF00C00C9800C00000019780F7AD
:101530006FBF4FEFD41AE40AF40AC11461E2D60671
:1015400063E0E606F10409F06ECFDFBFC4EBDBEA2F
:10155000D5CEDFB6F89430E020E002E310E0EFEF04
:10156000F0E0E9012196CE01B8010E940815892B0F
:1015700009F082C0232B09F47FC02FEF30E06FB752
:10158000F89487E090E007C0B3E0BA95F1F70C98C3
:1015900000C0019780F0A901082E02C0559547951B
:1015A0000A94E2F70C9A40FDEFCF00C00C9800C0FF
:1015B0000000019780F787E090E007C073E07A951C
:1015C000F1F70C9800C0019780F0AF01082E02C01F
:1015D000559547950A94E2F70C9A40FDEFCF00C06D
:1015E0000C9800C00000019780F787E090E007C0EA
:1015F00043E04A95F1F70C9800C0019780F0A901EB
:10160000082E02C0559547950A94E2F70C9A40FDC2
:10161000EFCF00C00C9800C00000019780F76FBFAB
:101620009E01C132D34009F09CCFDFBECCEBDBEA98
:1016300065CE40E060E08FEF47DDC5ECDBEA5ECED3
:1016400040E06FEF80E040DDC9ECDBEA57CE4FEFC2
:1016500060E080E039DDCFECDBEA50CE4FE76FE7AA
:101660008FE732DDC4EDDBEA49CE4FEF6FEF8FEF4E
:101670002BDDCEEDDBEA42CE30E020E080CF482FFC
:1016800050E03DEF3403C001112481509F4F092EDB
:10169000000CAA0BBB0BDC0199278827E5CE8555EA
:1016A000282F30E0C901880F991F820F931F092E40
:1016B000000CAA0BBB0BBA2FA92F982F8827A901C2
:1016C000440F551F440F551FB901641B750BAB0127
:1016D00041505F4FCECE0097D1F1019709F0E3CD95
:1016E00082E090E0112331F180915038909151388F
:1016F000B0E0A0E08C159D05AE05BF0508F0D7CD84
:10170000E0916E38F0916F38309709F00995E091CB
:101710007038F0917138309729F08091723890913B
:101720007338099586E090E067C0112309F499C0E9
:1017300081E090E0809382389093833840938F3893
:10174000509390386093913870939238B0CD8091D7
:101750008438811115C08091523890915338B0E08F
:10176000A0E08C159D05AE05BF0550F4E0918038D2
:10177000F0918138309721F081E080938438099589
:10178000112309F494CD81E090E080938238909306
:10179000833880918B3890918C38A0918D38B0919E
:1017A0008E3880938F3890939038A0939138B0936F
:1017B00092381092933810929438E0915638F09104
:1017C0005738309709F00995E0915838F091593819
:1017D000309709F46CCD80915A3890915B38099517
:1017E00066CD809193389091943801968093933888
:1017F0009093943883E090E080938238909383387C
:1018000056CDE0917438F0917538309709F009950C
:10181000E0917638F0917738309729F080917838D8
:1018200090917938099510928238109283381092ED
:101830009338109294382FB7F89480910D38909186
:101840000E38A0910F38B09110382FBF80938F3889
:1018500090939038A0939138B09392381092843836
:1018600026CD809193389091943840914E38509184
:101870004F3870E060E0C416D506E606F70640F47F
:1018800020919538309196382817390709F00FCDF7
:1018900081309105D9F0029761F1E0916838F091BB
:1018A0006938309709F00995E0916A38F0916B3802
:1018B000309709F4B8CF80916C3890916D38B2CFE1
:1018C00087E090E099CF8FEF9FEF94CCE0915C3868
:1018D000F0915D38309709F00995E0915E38F0910C
:1018E0005F38309709F49FCF8091603890916138CC
:1018F00099CFE0916238F0916338309709F00995FB
:10190000E0916438F0916538309709F48CCF80917C
:1019100066389091673886CF2F923F924F925F92B0
:101920006F927F928F929F92AF92BF92CF92DF92EF
:10193000EF92FF920F931F93CF93DF93CDB7DEB754
:101940006C97CDBFDEBF19821A821B821C82FFB644
:10195000F89461E273E040E0DE011496FE013296F5
:1019600050E087E090E007C023E02A95F1F70C985B
:1019700000C0019780F09A01082E02C03595279586
:101980000A94E2F70C9A20FDEFCF00C00C9800C03B
:101990000000019780F7AE17BF0711F04191E0CF2B
:1019A0006150710911F04981D9CFFFBE62E370E047
:1019B00080E090E00E94230205E010E0C12CD12CD1
:1019C000760181E0AFD9BC01990F880B990B05D73F
:1019D0002AE037ED43E25CE3B4D72DEC3CEC4CEC71
:1019E0005DE360D69B01AC01C701B601F3D56B0185
:1019F0007C0163E070E080E090E00E9423020150EF
:101A00001109F9F620E030E040EA50E4C701B601E0
:101A100049D66F8B788F898F9A8F8CE0E6E4FBEA4A
:101A2000DE01119601900D928A95E1F7CE010196A3
:101A30008B8F9C8F4E019DE0890E911CEB8DFC8D50
:101A40004190519061907190EB8FFC8FC301B20176
:101A500091D61B0190E2A92E93E0B92ED12CC12C76
:101A600008C06701FFEFCF1ADF0AAC14BD040CF405
:101A700053C07601EA0CFB1CF594E7943F922F9239
:101A80002DEE3BEA3F932F931F929AE09F939F92F4
:101A90008F920E947415B401C701A6D993018201E7
:101AA0004F89588D698D7A8DC7013EDACDBFDEBF73
:101AB0008111D7CFE114F10479F1570121E0A21A85
:101AC000B10893014F89588D698D7A8DC5012CDA43
:101AD000882359F2C701FF0CAA0BBB0B8093003877
:101AE00090930138A0930238B09303386C96CDBF21
:101AF000DEBFDF91CF911F910F91FF90EF90DF90AC
:101B0000CF90BF90AF909F908F907F906F905F909D
:101B10004F903F902F9008958B8D9C8D881699063D
:101B200009F08CCFE3CFEF92FF920F931F93CF93E7
:101B3000DF9300D000D0CDB7DEB79091203891FB75
:101B4000882780F992FD2EC081112CC0809101025E
:101B500084FDF5C083E08093260480912038826064
:101B600080932038E0911D38F0911E3881E0838306
:101B70008583E0911D38F0911E389091203891FFB7
:101B800026C096819935A1F02381138299E5968329
:101B900090819D7F9083238320FD858380912038D1
:101BA00086958170882399F0E0911D38F0911E3858
:101BB0008681813161F09381138281E18683808106
:101BC0008D7F8083938390FF02C081E08583109294
:101BD000B0388CE38093AF381092A1381092A238BD
:101BE000E0E8F2E005911491E2E8F2E08491E3E8A4
:101BF000F2E0E491E093A338E4E8F2E0E491E093CA
:101C0000A438E5E8F2E0E491E093A538882391F068
:101C1000815078012FEFE21AF20AE80EF11CF80168
:101C200064918DE998E30E9497020F5F1F4F0E1594
:101C30001F05A9F70E94030360EA8DE998E30E945B
:101C4000970260EC8DE998E30E949702E5E9F0E0E5
:101C5000E093AB38F093AC388491E6E9F0E0E4919E
:101C6000982F8E2F019709F46EC081E08093A638DB
:101C70000E94030319821A821B821C821FB7F894E8
:101C800061E273E040E0DE011496FE01329650E01E
:101C900087E090E007C023E02A95F1F70C9800C098
:101CA000019780F09A01082E02C0359527950A9475
:101CB000E2F70C9A20FDEFCF00C00C9800C00000A6
:101CC000019780F7AE17BF0711F04191E0CF615047
:101CD000710911F04981D9CF1FBF8AE498E322E24C
:101CE00035E0209358383093593880935A38909380
:101CF0005B3826EA3EE02093703830937138809349
:101D000072389093733884E190E080934C389093CC
:101D10004D3880E293E0809397389093983864E64A
:101D200070E080E090E00E9423022496CDBFDEBFE9
:101D3000DF91CF911F910F91FF90EF90EDCD86E055
:101D4000809306040ACF1092A63892CFE5CD8F93E8
:101D500081E080938D0A8FB78F93EF93FF93E9E033
:101D6000F8E39F9368948FEF0DC0E8948481958188
:101D7000805D9C4F84839583885E934080F084834C
:101D800095838FEF9081981B919390819F4F9193B2
:101D900090819F4F919390819F4F919336F39F91A4
:101DA000FF91EF918F918FBF8F9118951F920F9296
:101DB0000FB60F9211241F932F933F934F935F936E
:101DC0006F937F938F939F93AF93BF93CF93DF9343
:101DD000EF93FF93C0911338D09114382097B9F145
:101DE000A885B9851B961C911B9716FF53C08B8540
:101DF00083FF09C0877F8B87EF85F889309719F0BB
:101E00008A8990E0099510FF3BC08A8981110BC037
:101E100080910838811107C0809150008093083864
:101E20008170809350001A8A1B8AE885F985858520
:101E3000898B11FF20C0ED85FE85309709F009954B
:101E40008A8981111BC086E0E885F9858287FF9128
:101E5000EF91DF91CF91BF91AF919F918F917F9142
:101E60006F915F914F913F912F911F910F900FBEF6
:101E70000F901F9018958B8588608B8783E0E4CF47
:101E80008091083880935000109208381A8A1B8A73
:101E900082E0DACF17FF2EC09E012B5E3F4F11FF6D
:101EA0001AC08A85182321F088E08A871A8AF0CF21
:101EB0008C898F5F8C8B88E18A87EB898A89E81708
:101EC000A8F7E20FF32FF11D80811D968C938B896B
:101ED0008F5F8B8BD3CF1D968C91EA89E03250F4C3
:101EE000E20FF32FF11D80838A898F5F8A8B803206
:101EF00029F6A9CF80E0A8CF049A0C980895E5E1CF
:101F0000F8E31282138288EE93E0A0E0B0E08483CD
:101F10009583A683B78384E69BEA80839183E093CD
:101F20001338F093143880E198E080879187E4DFDC
:101F30000E9476018EE89BEA80939D3890939E38AC
:101F4000EAE4F8E382E390E08283938380E991E01E
:101F50008483958380E293E08683978388EE93E081
:101F600080879187128613861486158616861786B3
:101F7000108A118A128A138A148A158A168A178A75
:101F8000108E118E128E138E148E158E168E178E45
:101F900010A211A212A213A214A215A216A217A295
:101FA00010A611A612A613A614A615A616A617A665
:101FB00010AA11AA12AA13AA14AA15AA16AA17AA35
:101FC00010AE11AE12AE13AE14AE1092873810924E
:101FD00088381092893810928A3810928B38109273
:101FE0008C3810928D3810928E3810928F38109253
:101FF0009038109291381092923810929338109233
:10200000943881E090E080939538909396381092C0
:102010009738109298381092993810929A381092F6
:102020009B3810929C388083918380E280930204D5
:10203000E5E0F4E080898860808B089588ED90E089
:1020400084BF90936100E0E0F6E083E582838DE059
:10205000858380E2838381E08083109202028093F3
:10206000030A9EEF9093260A9093270A9BE0909391
:10207000000AE0E8FAE02DEF31E026A737A7118249
:1020800090E89283848781E1808378944CDD7FD8C7
:10209000FECFABE0B0E0EEE4F0E16AC27C013B01D0
:1020A0008A01FC0116821782838181FFBAC1CE01A9
:1020B00001965C01F7019381F30193FD859193FFF4
:1020C00081913F01882309F449C1853239F493FD98
:1020D000859193FF81913F01853221F4B70190E012
:1020E000B9D1E8CF912C212C312CFFE1F31538F038
:1020F0008B3211F190F4803209F1833229F137FCEF
:102100003CC020ED280F2A3050F536FE20C08AE072
:10211000989E200D1124922E06C08D3291F08033AE
:1021200071F7689430F8F30193FD859193FF8191E5
:102130003F018111DACF21C0689431F8689432F8F8
:10214000F2CF689433F8EFCF689434F8ECCFEAE03C
:102150002E9E200D1124222E689435F8E4CF8E3265
:1021600029F436FCFBC0689436F8DDCF8C3619F4C0
:10217000689437F8D8CF8836B1F2982F9F7D955460
:102180009330D8F0833691F18337B1F1833509F07C
:102190005EC02801F2E04F0E511CF801C080D180D2
:1021A000692D70E036FC02C06FEF7FEFC6013CD1B5
:1021B0004C01689437F882010AC00C5F1F4FFFE39F
:1021C000F98388248394912C6501E89437F833FED1
:1021D0002AC0522C8114910459F5552009F46ACF74
:1021E000B70180E290E036D15A94F7CFF8018081B0
:1021F00089830E5F1F4FE5CF2801F2E04F0E511C7F
:10220000F801C080D180692D70E036FC02C06FEF0C
:102210007FEFC60114D14C018201D7CFB70180E214
:1022200090E018D12A942814190409F0B8F7D1CFF6
:10223000F60137FC859137FE81916F01B70190E07F
:1022400009D151105A94F1E08F1A9108C3CF843606
:1022500019F0893609F073C0F80137FE67C0608154
:102260007181828193810C5F1F4FF32DFF763F2E8A
:1022700097FF09C090958095709561957F4F8F4F1E
:102280009F4F689437F82AE030E0A50113D1C82E9B
:10229000CA188C2C432C36FE0CC0E89440F8C914A4
:1022A00040F434FE05C032FC03C0F32DFE7E4F2EF9
:1022B000892C44FE90C0FE01EC0DF11D808180331D
:1022C00009F082C0242D297E422E842D8870582E3C
:1022D00043FC8FC040FE89C09C2C821418F42C0C47
:1022E000922C981844FE8BC0B70180E390E0B2D0E6
:1022F00042FE08C088E790E041FE02C088E590E019
:10230000B701A8D0C91408F486C0CA94D12C9FEF95
:10231000C91AD90ACA0CDB1CF60182916F01B701F8
:1023200090E098D0AC14BD04B9F757CF60817181AB
:10233000072E000C880B990B0E5F1F4F96CFD32CE6
:10234000E894D4F82AE030E0853731F1232D297F55
:10235000D22E8F36F9F040F48835A1F0F70186814E
:1023600097812B96E2E11DC1803749F08837B1F79C
:10237000D4FE02C06894D2F820E130E00DC0689429
:10238000D4F8F6CF34FE03C0822F8660D82E20E129
:1023900032E002C028E030E0F801D7FE0EC06081D4
:1023A0007181828193810C5F1F4FA50183D0C82E5C
:1023B000CA183D2CE89437F86CCF6081718190E0A9
:1023C00080E00E5F1F4FF1CF42FC02C083947DCFAF
:1023D000839483947ACF842D867809F476CFF6CFD0
:1023E000B70180E290E036D083948214C8F3512C78
:1023F00079CF522C5818821408F474CFF8CF842D5A
:10240000867809F47FCF8BE241FE80E247FC8DE2C3
:10241000B70190E076CFB70180E390E01BD09A94AB
:1024200071CF8FEF9FEF9DCFFC0105906150704001
:102430000110D8F7809590958E0F9F1F0895FC018D
:102440006150704001900110D8F7809590958E0FE3
:102450009F1F08950F931F93CF93DF93182F092F7A
:10246000EB018B8181FD09C01FEF0FEF812F902FB2
:10247000DF91CF911F910F91089582FF14C02E819B
:102480003F818C819D81281739073CF4E881F981CF
:10249000CF0101968883998310838E819F81019655
:1024A0008E839F83E3CFE885F985812F0995892B5A
:1024B000A1F3DACFFA01AA27283051F1203181F1B6
:1024C000E8946F936E7F6E5F7F4F8F4F9F4FAF4F3C
:1024D000B1E03ED0B4E03CD0670F781F891F9A1F4F
:1024E000A11D680F791F8A1F911DA11D6A0F711D03
:1024F000811D911DA11D20D009F468943F912AE00F
:10250000269F11243019305D3193DEF6CF010895F6
:10251000462F4770405D4193B3E00FD0C9F7F6CF27
:10252000462F4F70405D4A3318F0495D31FD4052EF
:10253000419302D0A9F7EACFB4E0A6959795879585
:1025400077956795BA95C9F7009761057105089564
:102550009B01AC010A2E0694579547953795279510
:10256000BA95C9F7620F731F841F951FA01D0895A8
:102570002F923F924F925F926F927F928F929F9293
:10258000AF92BF92CF92DF92EF92FF920F931F9381
:10259000CF93DF93CDB7DEB7CA1BDB0BCDBFDEBF5A
:1025A00009942A88398848885F846E847D848C8465
:1025B0009B84AA84B984C884DF80EE80FD800C816E
:1025C0001B81AA81B981CE0FD11DCDBFDEBFED0128
:1025D00008955058BB27AA270ED075C166D130F098
:1025E0006BD120F031F49F3F11F41EF45BC10EF467
:1025F000E095E7FB51C1E92F77D180F3BA17620765
:1026000073078407950718F071F49EF58FC10EF4D7
:10261000E0950B2EBA2FA02D0B01B90190010C01F2
:10262000CA01A0011124FF27591B99F0593F50F40A
:10263000503E68F11A16F040A22F232F342F442762
:10264000585FF3CF469537952795A795F04053955A
:10265000C9F77EF41F16BA0B620B730B840BBAF02A
:102660009150A1F0FF0FBB1F661F771F881FC2F795
:102670000EC0BA0F621F731F841F48F487957795A9
:102680006795B795F7959E3F08F0B3CF9395880F60
:1026900008F09927EE0F979587950895D9D008F4FB
:1026A00081E008950CD00FC107D140F0FED030F08A
:1026B00021F45F3F19F0F0C0511139C1F3C014D1BA
:1026C00098F39923C9F35523B1F3951B550BBB27F9
:1026D000AA2762177307840738F09F5F5F4F220FA6
:1026E000331F441FAA1FA9F333D00E2E3AF0E0E89F
:1026F00030D091505040E695001CCAF729D0FE2FEB
:1027000027D0660F771F881FBB1F2617370748077C
:10271000AB07B0E809F0BB0B802DBF01FF27935832
:102720005F4F2AF09E3F510568F0B6C000C15F3F81
:10273000ECF3983EDCF3869577956795B795F7951A
:102740009F5FC9F7880F911D9695879597F9089512
:10275000E1E0660F771F881FBB1F621773078407AE
:10276000BA0720F0621B730B840BBA0BEE1F88F7BD
:10277000E095089504D06894B111D9C00895BCD0F3
:1027800088F09F5790F0B92F9927B751A0F0D1F05A
:10279000660F771F881F991F1AF0BA95C9F712C0E4
:1027A000B13081F0C3D0B1E00895C0C0672F782F59
:1027B0008827B85F39F0B93FCCF386957795679550
:1027C000B395D9F73EF490958095709561957F4FBC
:1027D0008F4F9F4F0895E89409C097FB3EF4909562
:1027E0008095709561957F4F8F4F9F4F9923A9F0EA
:1027F000F92F96E9BB279395F69587957795679579
:10280000B795F111F8CFFAF4BB0F11F460FF1BC0BC
:102810006F5F7F4F8F4F9F4F16C0882311F096E94F
:1028200011C0772321F09EE8872F762F05C06623FD
:1028300071F096E8862F70E060E02AF09A95660FB6
:10284000771F881FDAF7880F9695879597F908956F
:10285000990F0008550FAA0BE0E8FEEF16161706B1
:10286000E807F907C0F012161306E407F50798F019
:10287000621B730B840B950B39F40A2661F0232B32
:10288000242B252B21F408950A2609F4A140A695AE
:102890008FEF811D811D089597F99F6780E870E093
:1028A00060E008959FEF80EC089500240A941616C6
:1028B000170618060906089500240A94121613062E
:1028C000140605060895092E0394000C11F48823BC
:1028D00052F0BB0F40F4BF2B11F460FF04C06F5FD8
:1028E0007F4F8F4F9F4F089557FD9058440F551FAE
:1028F00059F05F3F71F04795880F97FB991F61F082
:102900009F3F79F087950895121613061406551FF8
:10291000F2CF4695F1DF08C0161617061806991F64
:10292000F1CF86957105610508940895E894BB2759
:1029300066277727CB0197F908958ADF08F48FEF90
:1029400008950BD0C0CFB1DF28F0B6DF18F0952383
:1029500009F0A2CFA7CF1124EACFC6DFA0F3959F3D
:10296000D1F3950F50E0551F629FF001729FBB2776
:10297000F00DB11D639FAA27F00DB11DAA1F649F22
:102980006627B00DA11D661F829F2227B00DA11DD5
:10299000621F739FB00DA11D621F839FA00D611D5B
:1029A000221F749F3327A00D611D231F849F600D7C
:1029B000211D822F762F6A2F11249F5750408AF0B5
:1029C000E1F088234AF0EE0FFF1FBB1F661F771F41
:1029D000881F91505040A9F79E3F510570F05CCF81
:1029E000A6CF5F3FECF3983EDCF38695779567952D
:1029F000B795F795E7959F5FC1F7FE2B880F911D5F
:102A00009695879597F9089523DF880B990B08957C
:102A100097FB072E16F4009406D077FD08D03DD022
:102A200007FC05D03EF4909581959F4F08957095D1
:102A300061957F4F0895A1E21A2EAA1BBB1BFD01D1
:102A40000DC0AA1FBB1FEE1FFF1FA217B307E4078D
:102A5000F50720F0A21BB30BE40BF50B661F771FE5
:102A6000881F991F1A9469F76095709580959095C5
:102A70009B01AC01BD01CF010895EE0FFF1F059032
:102A8000F491E02D09941DD0A59F900DB49F900D59
:102A9000A49F800D911D11240895AA1BBB1B51E119
:102AA00007C0AA1FBB1FA617B70710F0A61BB70BBE
:102AB000881F991F5A95A9F780959095BC01CD0163
:102AC0000895A29FB001B39FC001A39F700D811D07
:102AD0001124911DB29F700D811D1124911D089527
:102AE00081E090E0F8942DC0AEE0B0E0E9E7F5E1D8
:102AF0004DCD0D891E898F89988D26E02C83098301
:102B00001A8397FF02C080E090E801978D839E832F
:102B1000AE01455E5F4F698D7A8DCE010196B9DABF
:102B20004D815E8157FD0AC02F81388542175307BA
:102B30000CF49A01020F131FF80110822E96E4E0A4
:062B40003ECDF894FFCF2A
:102B4600000020410000A0400000404000000000BE
:102B560045034D0233053205920700000000ED04DF
:102B6600FF043305B904E704D504C10400000000DE
:102B7600010101010000000010204080080402014C
:102B8600020408010000000045034D02330532052A
:102B960036056E616E00696E66006F7666002E0001
:102BA600506978656C733A00563A00413A005261B2
:102BB600696E626F7700457665727920353000520E
:102BC600656400477265656E00426C756500353058
:102BD60025205768697465003130302520576869AB
:0E2BE6007465004F666600436E74202564001F
:00000001FF
